:1000000093000050130100609301c000130210061a
:100010009302200613033006930340061304500690
:1000200023004100230251002304610023067100d4
:10003000230881009391c10100000000000000002e
:100040000000000000000000000000009304000019
:1000500013054000634f9500030a0100238040010f
:1000600093804000130141009384140023804101d8
:100070006ff05ffe000000006f0000000000000055
:100500006100000062000000630000006400000061
:100510006500000000000000000000000000000076
:100600006100000062000000630000006400000060
:100610006500000000000000000000000000000075
:00000001FF