:100000006F0040016F00C000000000000000000011
:10001000730020309301802317110000130181BE6B
:10002000930280231303802363F8620023A002005D
:1000300093824200E3EC62FEEF00C01B6F00000001
:10004000000000001301C0001311810093010100A2
:100050001302404093020000634A52002380A10033
:1000600093811100938212006FF01FFF67800000E0
:100070001301C0001311810093010100130200005D
:10008000930600006348460093860602130212009E
:100090006FF05FFFB386B600B381D1002380A1006B
:1000A00067800000130101FC232E1102232C810222
:1000B00013040104232CC4FC232AD4FC2328E4FCCD
:1000C0002326F4FC93070500A30FF4FC9387050097
:1000D000230FF4FC8347F4FD13850700EFF09FF630
:1000E000930710002326F4FE930760002324F4FEF8
:1000F0006F0040028347E4FD032684FE8325C4FE8F
:1001000013850700EFF0DFF68327C4FE93871700FF
:100110002326F4FE0327C4FE93077001E3DCE7FC0B
:10012000930770012326F4FE930760002324F4FE56
:100130006F0040028347E4FD032684FE8325C4FE4E
:1001400013850700EFF0DFF2832784FE9387170003
:100150002324F4FE032784FE9307C001E3DCE7FCBD
:10016000930770012326F4FE9307C0012324F4FEB5
:100170006F0040028347E4FD032684FE8325C4FE0E
:1001800013850700EFF0DFEE8327C4FE9387F7FFA8
:100190002326F4FE8327C4FEE34EF0FC93071000F1
:1001A0002326F4FE9307C0012324F4FE6F004002CF
:1001B0008347E4FD032684FE8325C4FE13850700E0
:1001C000EFF01FEB832784FE9387F7FF2324F4FED1
:1001D000032784FE93075000E3CCE7FC13000000E4
:1001E000130000008320C1030324810313010104D1
:1001F00067800000130101FF2326110023248100E2
:10020000130401019307C0011307700193066000F6
:10021000130610009305F00213050008EFF09FE8A5
:1002200093070000138507008320C1000324810089
:080230001301010167800000C9
:00000001FF
