:100000006F0040016F00C000000000000000000011
:10001000730020309301000917110000130181BE05
:10002000930200091303000963F8620023A0020091
:1000300093824200E3EC62FEEF0000046F000000D8
:10004000000000001301C0001311810093010100A2
:1000500013020000930600006348460093860602E0
:10006000130212006FF05FFFB386B600B381D100B8
:100070002380A100678000000305C0089305F000FD
:0C0080001306F000EFF01FFCEF00000082
:01008C002F44
:00000001FF
